{
  "abi": [
    {
      "type": "constructor",
      "inputs": [],
      "stateMutability": "nonpayable"
    },
    {
      "type": "function",
      "name": "DEFAULT_ADMIN_ROLE",
      "inputs": [],
      "outputs": [
        {
          "name": "",
          "type": "bytes32",
          "internalType": "bytes32"
        }
      ],
      "stateMutability": "view"
    },
    {
      "type": "function",
      "name": "allowance",
      "inputs": [
        {
          "name": "owner",
          "type": "address",
          "internalType": "address"
        },
        {
          "name": "spender",
          "type": "address",
          "internalType": "address"
        }
      ],
      "outputs": [
        {
          "name": "",
          "type": "uint256",
          "internalType": "uint256"
        }
      ],
      "stateMutability": "view"
    },
    {
      "type": "function",
      "name": "approve",
      "inputs": [
        {
          "name": "spender",
          "type": "address",
          "internalType": "address"
        },
        {
          "name": "amount",
          "type": "uint256",
          "internalType": "uint256"
        }
      ],
      "outputs": [
        {
          "name": "",
          "type": "bool",
          "internalType": "bool"
        }
      ],
      "stateMutability": "nonpayable"
    },
    {
      "type": "function",
      "name": "balanceOf",
      "inputs": [
        {
          "name": "account",
          "type": "address",
          "internalType": "address"
        }
      ],
      "outputs": [
        {
          "name": "",
          "type": "uint256",
          "internalType": "uint256"
        }
      ],
      "stateMutability": "view"
    },
    {
      "type": "function",
      "name": "burn",
      "inputs": [
        {
          "name": "amount",
          "type": "uint256",
          "internalType": "uint256"
        }
      ],
      "outputs": [],
      "stateMutability": "nonpayable"
    },
    {
      "type": "function",
      "name": "burn",
      "inputs": [
        {
          "name": "account",
          "type": "address",
          "internalType": "address"
        },
        {
          "name": "amount",
          "type": "uint256",
          "internalType": "uint256"
        }
      ],
      "outputs": [],
      "stateMutability": "nonpayable"
    },
    {
      "type": "function",
      "name": "burnFrom",
      "inputs": [
        {
          "name": "account",
          "type": "address",
          "internalType": "address"
        },
        {
          "name": "amount",
          "type": "uint256",
          "internalType": "uint256"
        }
      ],
      "outputs": [],
      "stateMutability": "nonpayable"
    },
    {
      "type": "function",
      "name": "decimals",
      "inputs": [],
      "outputs": [
        {
          "name": "",
          "type": "uint8",
          "internalType": "uint8"
        }
      ],
      "stateMutability": "view"
    },
    {
      "type": "function",
      "name": "decreaseAllowance",
      "inputs": [
        {
          "name": "spender",
          "type": "address",
          "internalType": "address"
        },
        {
          "name": "subtractedValue",
          "type": "uint256",
          "internalType": "uint256"
        }
      ],
      "outputs": [
        {
          "name": "",
          "type": "bool",
          "internalType": "bool"
        }
      ],
      "stateMutability": "nonpayable"
    },
    {
      "type": "function",
      "name": "getBurnerRole",
      "inputs": [],
      "outputs": [
        {
          "name": "",
          "type": "bytes32",
          "internalType": "bytes32"
        }
      ],
      "stateMutability": "pure"
    },
    {
      "type": "function",
      "name": "getCCIPAdmin",
      "inputs": [],
      "outputs": [
        {
          "name": "",
          "type": "address",
          "internalType": "address"
        }
      ],
      "stateMutability": "view"
    },
    {
      "type": "function",
      "name": "getMinterRole",
      "inputs": [],
      "outputs": [
        {
          "name": "",
          "type": "bytes32",
          "internalType": "bytes32"
        }
      ],
      "stateMutability": "pure"
    },
    {
      "type": "function",
      "name": "getRoleAdmin",
      "inputs": [
        {
          "name": "role",
          "type": "bytes32",
          "internalType": "bytes32"
        }
      ],
      "outputs": [
        {
          "name": "",
          "type": "bytes32",
          "internalType": "bytes32"
        }
      ],
      "stateMutability": "view"
    },
    {
      "type": "function",
      "name": "grantRole",
      "inputs": [
        {
          "name": "role",
          "type": "bytes32",
          "internalType": "bytes32"
        },
        {
          "name": "account",
          "type": "address",
          "internalType": "address"
        }
      ],
      "outputs": [],
      "stateMutability": "nonpayable"
    },
    {
      "type": "function",
      "name": "hasRole",
      "inputs": [
        {
          "name": "role",
          "type": "bytes32",
          "internalType": "bytes32"
        },
        {
          "name": "account",
          "type": "address",
          "internalType": "address"
        }
      ],
      "outputs": [
        {
          "name": "",
          "type": "bool",
          "internalType": "bool"
        }
      ],
      "stateMutability": "view"
    },
    {
      "type": "function",
      "name": "increaseAllowance",
      "inputs": [
        {
          "name": "spender",
          "type": "address",
          "internalType": "address"
        },
        {
          "name": "addedValue",
          "type": "uint256",
          "internalType": "uint256"
        }
      ],
      "outputs": [
        {
          "name": "",
          "type": "bool",
          "internalType": "bool"
        }
      ],
      "stateMutability": "nonpayable"
    },
    {
      "type": "function",
      "name": "mint",
      "inputs": [
        {
          "name": "account",
          "type": "address",
          "internalType": "address"
        },
        {
          "name": "amount",
          "type": "uint256",
          "internalType": "uint256"
        }
      ],
      "outputs": [],
      "stateMutability": "nonpayable"
    },
    {
      "type": "function",
      "name": "name",
      "inputs": [],
      "outputs": [
        {
          "name": "",
          "type": "string",
          "internalType": "string"
        }
      ],
      "stateMutability": "view"
    },
    {
      "type": "function",
      "name": "owner",
      "inputs": [],
      "outputs": [
        {
          "name": "",
          "type": "address",
          "internalType": "address"
        }
      ],
      "stateMutability": "view"
    },
    {
      "type": "function",
      "name": "renounceOwnership",
      "inputs": [],
      "outputs": [],
      "stateMutability": "nonpayable"
    },
    {
      "type": "function",
      "name": "renounceRole",
      "inputs": [
        {
          "name": "role",
          "type": "bytes32",
          "internalType": "bytes32"
        },
        {
          "name": "account",
          "type": "address",
          "internalType": "address"
        }
      ],
      "outputs": [],
      "stateMutability": "nonpayable"
    },
    {
      "type": "function",
      "name": "revokeRole",
      "inputs": [
        {
          "name": "role",
          "type": "bytes32",
          "internalType": "bytes32"
        },
        {
          "name": "account",
          "type": "address",
          "internalType": "address"
        }
      ],
      "outputs": [],
      "stateMutability": "nonpayable"
    },
    {
      "type": "function",
      "name": "supportsInterface",
      "inputs": [
        {
          "name": "interfaceId",
          "type": "bytes4",
          "internalType": "bytes4"
        }
      ],
      "outputs": [
        {
          "name": "",
          "type": "bool",
          "internalType": "bool"
        }
      ],
      "stateMutability": "view"
    },
    {
      "type": "function",
      "name": "symbol",
      "inputs": [],
      "outputs": [
        {
          "name": "",
          "type": "string",
          "internalType": "string"
        }
      ],
      "stateMutability": "view"
    },
    {
      "type": "function",
      "name": "totalSupply",
      "inputs": [],
      "outputs": [
        {
          "name": "",
          "type": "uint256",
          "internalType": "uint256"
        }
      ],
      "stateMutability": "view"
    },
    {
      "type": "function",
      "name": "transfer",
      "inputs": [
        {
          "name": "to",
          "type": "address",
          "internalType": "address"
        },
        {
          "name": "amount",
          "type": "uint256",
          "internalType": "uint256"
        }
      ],
      "outputs": [
        {
          "name": "",
          "type": "bool",
          "internalType": "bool"
        }
      ],
      "stateMutability": "nonpayable"
    },
    {
      "type": "function",
      "name": "transferFrom",
      "inputs": [
        {
          "name": "from",
          "type": "address",
          "internalType": "address"
        },
        {
          "name": "to",
          "type": "address",
          "internalType": "address"
        },
        {
          "name": "amount",
          "type": "uint256",
          "internalType": "uint256"
        }
      ],
      "outputs": [
        {
          "name": "",
          "type": "bool",
          "internalType": "bool"
        }
      ],
      "stateMutability": "nonpayable"
    },
    {
      "type": "function",
      "name": "transferOwnership",
      "inputs": [
        {
          "name": "newOwner",
          "type": "address",
          "internalType": "address"
        }
      ],
      "outputs": [],
      "stateMutability": "nonpayable"
    },
    {
      "type": "event",
      "name": "Approval",
      "inputs": [
        {
          "name": "owner",
          "type": "address",
          "indexed": true,
          "internalType": "address"
        },
        {
          "name": "spender",
          "type": "address",
          "indexed": true,
          "internalType": "address"
        },
        {
          "name": "value",
          "type": "uint256",
          "indexed": false,
          "internalType": "uint256"
        }
      ],
      "anonymous": false
    },
    {
      "type": "event",
      "name": "OwnershipTransferred",
      "inputs": [
        {
          "name": "previousOwner",
          "type": "address",
          "indexed": true,
          "internalType": "address"
        },
        {
          "name": "newOwner",
          "type": "address",
          "indexed": true,
          "internalType": "address"
        }
      ],
      "anonymous": false
    },
    {
      "type": "event",
      "name": "RoleAdminChanged",
      "inputs": [
        {
          "name": "role",
          "type": "bytes32",
          "indexed": true,
          "internalType": "bytes32"
        },
        {
          "name": "previousAdminRole",
          "type": "bytes32",
          "indexed": true,
          "internalType": "bytes32"
        },
        {
          "name": "newAdminRole",
          "type": "bytes32",
          "indexed": true,
          "internalType": "bytes32"
        }
      ],
      "anonymous": false
    },
    {
      "type": "event",
      "name": "RoleGranted",
      "inputs": [
        {
          "name": "role",
          "type": "bytes32",
          "indexed": true,
          "internalType": "bytes32"
        },
        {
          "name": "account",
          "type": "address",
          "indexed": true,
          "internalType": "address"
        },
        {
          "name": "sender",
          "type": "address",
          "indexed": true,
          "internalType": "address"
        }
      ],
      "anonymous": false
    },
    {
      "type": "event",
      "name": "RoleRevoked",
      "inputs": [
        {
          "name": "role",
          "type": "bytes32",
          "indexed": true,
          "internalType": "bytes32"
        },
        {
          "name": "account",
          "type": "address",
          "indexed": true,
          "internalType": "address"
        },
        {
          "name": "sender",
          "type": "address",
          "indexed": true,
          "internalType": "address"
        }
      ],
      "anonymous": false
    },
    {
      "type": "event",
      "name": "Transfer",
      "inputs": [
        {
          "name": "from",
          "type": "address",
          "indexed": true,
          "internalType": "address"
        },
        {
          "name": "to",
          "type": "address",
          "indexed": true,
          "internalType": "address"
        },
        {
          "name": "value",
          "type": "uint256",
          "indexed": false,
          "internalType": "uint256"
        }
      ],
      "anonymous": false
    }
  ],
  "bytecode": {
    "object": "0x60a060405234801561000f575f5ffd5b506040518060400160405280600b81526020017f536e61696c20546f6b656e0000000000000000000000000000000000000000008152506040518060400160405280600581526020017f534e41494c000000000000000000000000000000000000000000000000000000815250816003908161008b91906105b7565b50806004908161009b91906105b7565b5050506100ba6100af61016560201b60201c565b61016c60201b60201c565b6100cc5f5f1b3361022f60201b60201c565b6100fc7f9f2df0fed2c77648de5860a4cc508cd0818c85b8b8a1ab4ceeef8d981c8956a63361022f60201b60201c565b61012c7f3c11d16cbaffd01df69ce1c404f6340ee057498f5f00246190ea54220576a8483361022f60201b60201c565b3373ffffffffffffffffffffffffffffffffffffffff1660808173ffffffffffffffffffffffffffffffffffffffff1681525050610686565b5f33905090565b5f60055f9054906101000a900473ffffffffffffffffffffffffffffffffffffffff1690508160055f6101000a81548173ffffffffffffffffffffffffffffffffffffffff021916908373ffffffffffffffffffffffffffffffffffffffff1602179055508173ffffffffffffffffffffffffffffffffffffffff168173ffffffffffffffffffffffffffffffffffffffff167f8be0079c531659141344cd1fd0a4f28419497f9722a3daafe3b4186f6b6457e060405160405180910390a35050565b61023f828261031660201b60201c565b61031257600160065f8481526020019081526020015f205f015f8373ffffffffffffffffffffffffffffffffffffffff1673ffffffffffffffffffffffffffffffffffffffff1681526020019081526020015f205f6101000a81548160ff0219169083151502179055506102b761016560201b60201c565b73ffffffffffffffffffffffffffffffffffffffff168173ffffffffffffffffffffffffffffffffffffffff16837f2f8788117e7eff1d82e926ec794901d17c78024a50270940304540a733656f0d60405160405180910390a45b5050565b5f60065f8481526020019081526020015f205f015f8373ffffffffffffffffffffffffffffffffffffffff1673ffffffffffffffffffffffffffffffffffffffff1681526020019081526020015f205f9054906101000a900460ff16905092915050565b5f81519050919050565b7f4e487b71000000000000000000000000000000000000000000000000000000005f52604160045260245ffd5b7f4e487b71000000000000000000000000000000000000000000000000000000005f52602260045260245ffd5b5f60028204905060018216806103f557607f821691505b602082108103610408576104076103b1565b5b50919050565b5f819050815f5260205f209050919050565b5f6020601f8301049050919050565b5f82821b905092915050565b5f6008830261046a7fffffffffffffffffffffffffffffffffffffffffffffffffffffffffffffffff8261042f565b610474868361042f565b95508019841693508086168417925050509392505050565b5f819050919050565b5f819050919050565b5f6104b86104b36104ae8461048c565b610495565b61048c565b9050919050565b5f819050919050565b6104d18361049e565b6104e56104dd826104bf565b84845461043b565b825550505050565b5f5f905090565b6104fc6104ed565b6105078184846104c8565b505050565b5b8181101561052a5761051f5f826104f4565b60018101905061050d565b5050565b601f82111561056f576105408161040e565b61054984610420565b81016020851015610558578190505b61056c61056485610420565b83018261050c565b50505b505050565b5f82821c905092915050565b5f61058f5f1984600802610574565b1980831691505092915050565b5f6105a78383610580565b9150826002028217905092915050565b6105c08261037a565b67ffffffffffffffff8111156105d9576105d8610384565b5b6105e382546103de565b6105ee82828561052e565b5f60209050601f83116001811461061f575f841561060d578287015190505b610617858261059c565b86555061067e565b601f19841661062d8661040e565b5f5b828110156106545784890151825560018201915060208501945060208101905061062f565b86831015610671578489015161066d601f891682610580565b8355505b6001600288020188555050505b505050505050565b60805161292261069e5f395f61094501526129225ff3fe608060405234801561000f575f5ffd5b50600436106101c2575f3560e01c806379cc6790116100f7578063a457c2d711610095578063d547741f1161006f578063d547741f14610518578063dd62ed3e14610534578063ea35f36c14610564578063f2fde38b14610582576101c2565b8063a457c2d71461049a578063a9059cbb146104ca578063c5b66dc9146104fa576101c2565b806391d14854116100d157806391d148541461041257806395d89b41146104425780639dc29fac14610460578063a217fddf1461047c576101c2565b806379cc6790146103ba5780638da5cb5b146103d65780638fd6a6ac146103f4576101c2565b8063313ce5671161016457806340c10f191161013e57806340c10f191461034857806342966c681461036457806370a0823114610380578063715018a6146103b0576101c2565b8063313ce567146102de57806336568abe146102fc5780633950935114610318576101c2565b806318160ddd116101a057806318160ddd1461024457806323b872dd14610262578063248a9ca3146102925780632f2ff15d146102c2576101c2565b806301ffc9a7146101c657806306fdde03146101f6578063095ea7b314610214575b5f5ffd5b6101e060048036038101906101db9190611b55565b61059e565b6040516101ed9190611b9a565b60405180910390f35b6101fe610617565b60405161020b9190611c23565b60405180910390f35b61022e60048036038101906102299190611cd0565b6106a7565b60405161023b9190611b9a565b60405180910390f35b61024c6106c9565b6040516102599190611d1d565b60405180910390f35b61027c60048036038101906102779190611d36565b6106d2565b6040516102899190611b9a565b60405180910390f35b6102ac60048036038101906102a79190611db9565b610700565b6040516102b99190611df3565b60405180910390f35b6102dc60048036038101906102d79190611e0c565b61071d565b005b6102e661073e565b6040516102f39190611e65565b60405180910390f35b61031660048036038101906103119190611e0c565b610746565b005b610332600480360381019061032d9190611cd0565b6107c9565b60405161033f9190611b9a565b60405180910390f35b610362600480360381019061035d9190611cd0565b6107ff565b005b61037e60048036038101906103799190611e7e565b610838565b005b61039a60048036038101906103959190611ea9565b610877565b6040516103a79190611d1d565b60405180910390f35b6103b86108bc565b005b6103d460048036038101906103cf9190611cd0565b6108cf565b005b6103de61091a565b6040516103eb9190611ee3565b60405180910390f35b6103fc610942565b6040516104099190611ee3565b60405180910390f35b61042c60048036038101906104279190611e0c565b610969565b6040516104399190611b9a565b60405180910390f35b61044a6109cd565b6040516104579190611c23565b60405180910390f35b61047a60048036038101906104759190611cd0565b610a5d565b005b610484610a96565b6040516104919190611df3565b60405180910390f35b6104b460048036038101906104af9190611cd0565b610a9c565b6040516104c19190611b9a565b60405180910390f35b6104e460048036038101906104df9190611cd0565b610b11565b6040516104f19190611b9a565b60405180910390f35b610502610b33565b60405161050f9190611df3565b60405180910390f35b610532600480360381019061052d9190611e0c565b610b5a565b005b61054e60048036038101906105499190611efc565b610b7b565b60405161055b9190611d1d565b60405180910390f35b61056c610bfd565b6040516105799190611df3565b60405180910390f35b61059c60048036038101906105979190611ea9565b610c24565b005b5f7f7965db0b000000000000000000000000000000000000000000000000000000007bffffffffffffffffffffffffffffffffffffffffffffffffffffffff1916827bffffffffffffffffffffffffffffffffffffffffffffffffffffffff19161480610610575061060f82610ca6565b5b9050919050565b60606003805461062690611f67565b80601f016020809104026020016040519081016040528092919081815260200182805461065290611f67565b801561069d5780601f106106745761010080835404028352916020019161069d565b820191905f5260205f20905b81548152906001019060200180831161068057829003601f168201915b5050505050905090565b5f5f6106b1610d0f565b90506106be818585610d16565b600191505092915050565b5f600254905090565b5f5f6106dc610d0f565b90506106e9858285610ed9565b6106f4858585610f64565b60019150509392505050565b5f60065f8381526020019081526020015f20600101549050919050565b61072682610700565b61072f816111d0565b61073983836111e4565b505050565b5f6012905090565b61074e610d0f565b73ffffffffffffffffffffffffffffffffffffffff168173ffffffffffffffffffffffffffffffffffffffff16146107bb576040517f08c379a00000000000000000000000000000000000000000000000000000000081526004016107b290612007565b60405180910390fd5b6107c582826112bf565b5050565b5f5f6107d3610d0f565b90506107f48185856107e58589610b7b565b6107ef9190612052565b610d16565b600191505092915050565b7f9f2df0fed2c77648de5860a4cc508cd0818c85b8b8a1ab4ceeef8d981c8956a6610829816111d0565b610833838361139a565b505050565b7f3c11d16cbaffd01df69ce1c404f6340ee057498f5f00246190ea54220576a848610862816111d0565b61087361086d610d0f565b836114e8565b5050565b5f5f5f8373ffffffffffffffffffffffffffffffffffffffff1673ffffffffffffffffffffffffffffffffffffffff1681526020019081526020015f20549050919050565b6108c46116ab565b6108cd5f611729565b565b7f3c11d16cbaffd01df69ce1c404f6340ee057498f5f00246190ea54220576a8486108f9816111d0565b61090b83610905610d0f565b84610ed9565b61091583836114e8565b505050565b5f60055f9054906101000a900473ffffffffffffffffffffffffffffffffffffffff16905090565b5f7f0000000000000000000000000000000000000000000000000000000000000000905090565b5f60065f8481526020019081526020015f205f015f8373ffffffffffffffffffffffffffffffffffffffff1673ffffffffffffffffffffffffffffffffffffffff1681526020019081526020015f205f9054906101000a900460ff16905092915050565b6060600480546109dc90611f67565b80601f0160208091040260200160405190810160405280929190818152602001828054610a0890611f67565b8015610a535780601f10610a2a57610100808354040283529160200191610a53565b820191905f5260205f20905b815481529060010190602001808311610a3657829003601f168201915b5050505050905090565b7f3c11d16cbaffd01df69ce1c404f6340ee057498f5f00246190ea54220576a848610a87816111d0565b610a9183836117ec565b505050565b5f5f1b81565b5f5f610aa6610d0f565b90505f610ab38286610b7b565b905083811015610af8576040517f08c379a0000000000000000000000000000000000000000000000000000000008152600401610aef906120f5565b60405180910390fd5b610b058286868403610d16565b60019250505092915050565b5f5f610b1b610d0f565b9050610b28818585610f64565b600191505092915050565b5f7f3c11d16cbaffd01df69ce1c404f6340ee057498f5f00246190ea54220576a848905090565b610b6382610700565b610b6c816111d0565b610b7683836112bf565b505050565b5f60015f8473ffffffffffffffffffffffffffffffffffffffff1673ffffffffffffffffffffffffffffffffffffffff1681526020019081526020015f205f8373ffffffffffffffffffffffffffffffffffffffff1673ffffffffffffffffffffffffffffffffffffffff1681526020019081526020015f2054905092915050565b5f7f9f2df0fed2c77648de5860a4cc508cd0818c85b8b8a1ab4ceeef8d981c8956a6905090565b610c2c6116ab565b5f73ffffffffffffffffffffffffffffffffffffffff168173ffffffffffffffffffffffffffffffffffffffff1603610c9a576040517f08c379a0000000000000000000000000000000000000000000000000000000008152600401610c9190612183565b60405180910390fd5b610ca381611729565b50565b5f7f01ffc9a7000000000000000000000000000000000000000000000000000000007bffffffffffffffffffffffffffffffffffffffffffffffffffffffff1916827bffffffffffffffffffffffffffffffffffffffffffffffffffffffff1916149050919050565b5f33905090565b5f73ffffffffffffffffffffffffffffffffffffffff168373ffffffffffffffffffffffffffffffffffffffff1603610d84576040517f08c379a0000000000000000000000000000000000000000000000000000000008152600401610d7b90612211565b60405180910390fd5b5f73ffffffffffffffffffffffffffffffffffffffff168273ffffffffffffffffffffffffffffffffffffffff1603610df2576040517f08c379a0000000000000000000000000000000000000000000000000000000008152600401610de99061229f565b60405180910390fd5b8060015f8573ffffffffffffffffffffffffffffffffffffffff1673ffffffffffffffffffffffffffffffffffffffff1681526020019081526020015f205f8473ffffffffffffffffffffffffffffffffffffffff1673ffffffffffffffffffffffffffffffffffffffff1681526020019081526020015f20819055508173ffffffffffffffffffffffffffffffffffffffff168373ffffffffffffffffffffffffffffffffffffffff167f8c5be1e5ebec7d5bd14f71427d1e84f3dd0314c0f7b2291e5b200ac8c7c3b92583604051610ecc9190611d1d565b60405180910390a3505050565b5f610ee48484610b7b565b90507fffffffffffffffffffffffffffffffffffffffffffffffffffffffffffffffff8114610f5e5781811015610f50576040517f08c379a0000000000000000000000000000000000000000000000000000000008152600401610f4790612307565b60405180910390fd5b610f5d8484848403610d16565b5b50505050565b5f73ffffffffffffffffffffffffffffffffffffffff168373ffffffffffffffffffffffffffffffffffffffff1603610fd2576040517f08c379a0000000000000000000000000000000000000000000000000000000008152600401610fc990612395565b60405180910390fd5b5f73ffffffffffffffffffffffffffffffffffffffff168273ffffffffffffffffffffffffffffffffffffffff1603611040576040517f08c379a000000000000000000000000000000000000000000000000000000000815260040161103790612423565b60405180910390fd5b61104b83838361180c565b5f5f5f8573ffffffffffffffffffffffffffffffffffffffff1673ffffffffffffffffffffffffffffffffffffffff1681526020019081526020015f20549050818110156110ce576040517f08c379a00000000000000000000000000000000000000000000000000000000081526004016110c5906124b1565b60405180910390fd5b8181035f5f8673ffffffffffffffffffffffffffffffffffffffff1673ffffffffffffffffffffffffffffffffffffffff1681526020019081526020015f2081905550815f5f8573ffffffffffffffffffffffffffffffffffffffff1673ffffffffffffffffffffffffffffffffffffffff1681526020019081526020015f205f82825401925050819055508273ffffffffffffffffffffffffffffffffffffffff168473ffffffffffffffffffffffffffffffffffffffff167fddf252ad1be2c89b69c2b068fc378daa952ba7f163c4a11628f55a4df523b3ef846040516111b79190611d1d565b60405180910390a36111ca848484611811565b50505050565b6111e1816111dc610d0f565b611816565b50565b6111ee8282610969565b6112bb57600160065f8481526020019081526020015f205f015f8373ffffffffffffffffffffffffffffffffffffffff1673ffffffffffffffffffffffffffffffffffffffff1681526020019081526020015f205f6101000a81548160ff021916908315150217905550611260610d0f565b73ffffffffffffffffffffffffffffffffffffffff168173ffffffffffffffffffffffffffffffffffffffff16837f2f8788117e7eff1d82e926ec794901d17c78024a50270940304540a733656f0d60405160405180910390a45b5050565b6112c98282610969565b15611396575f60065f8481526020019081526020015f205f015f8373ffffffffffffffffffffffffffffffffffffffff1673ffffffffffffffffffffffffffffffffffffffff1681526020019081526020015f205f6101000a81548160ff02191690831515021790555061133b610d0f565b73ffffffffffffffffffffffffffffffffffffffff168173ffffffffffffffffffffffffffffffffffffffff16837ff6391f5c32d9c69d2a47ea670b442974b53935d1edc7fd64eb21e047a839171b60405160405180910390a45b5050565b5f73ffffffffffffffffffffffffffffffffffffffff168273ffffffffffffffffffffffffffffffffffffffff1603611408576040517f08c379a00000000000000000000000000000000000000000000000000000000081526004016113ff90612519565b60405180910390fd5b6114135f838361180c565b8060025f8282546114249190612052565b92505081905550805f5f8473ffffffffffffffffffffffffffffffffffffffff1673ffffffffffffffffffffffffffffffffffffffff1681526020019081526020015f205f82825401925050819055508173ffffffffffffffffffffffffffffffffffffffff165f73ffffffffffffffffffffffffffffffffffffffff167fddf252ad1be2c89b69c2b068fc378daa952ba7f163c4a11628f55a4df523b3ef836040516114d19190611d1d565b60405180910390a36114e45f8383611811565b5050565b5f73ffffffffffffffffffffffffffffffffffffffff168273ffffffffffffffffffffffffffffffffffffffff1603611556576040517f08c379a000000000000000000000000000000000000000000000000000000000815260040161154d906125a7565b60405180910390fd5b611561825f8361180c565b5f5f5f8473ffffffffffffffffffffffffffffffffffffffff1673ffffffffffffffffffffffffffffffffffffffff1681526020019081526020015f20549050818110156115e4576040517f08c379a00000000000000000000000000000000000000000000000000000000081526004016115db90612635565b60405180910390fd5b8181035f5f8573ffffffffffffffffffffffffffffffffffffffff1673ffffffffffffffffffffffffffffffffffffffff1681526020019081526020015f20819055508160025f82825403925050819055505f73ffffffffffffffffffffffffffffffffffffffff168373ffffffffffffffffffffffffffffffffffffffff167fddf252ad1be2c89b69c2b068fc378daa952ba7f163c4a11628f55a4df523b3ef846040516116939190611d1d565b60405180910390a36116a6835f84611811565b505050565b6116b3610d0f565b73ffffffffffffffffffffffffffffffffffffffff166116d161091a565b73ffffffffffffffffffffffffffffffffffffffff1614611727576040517f08c379a000000000000000000000000000000000000000000000000000000000815260040161171e9061269d565b60405180910390fd5b565b5f60055f9054906101000a900473ffffffffffffffffffffffffffffffffffffffff1690508160055f6101000a81548173ffffffffffffffffffffffffffffffffffffffff021916908373ffffffffffffffffffffffffffffffffffffffff1602179055508173ffffffffffffffffffffffffffffffffffffffff168173ffffffffffffffffffffffffffffffffffffffff167f8be0079c531659141344cd1fd0a4f28419497f9722a3daafe3b4186f6b6457e060405160405180910390a35050565b6117fe826117f8610d0f565b83610ed9565b61180882826114e8565b5050565b505050565b505050565b6118208282610969565b6118965761182d8161189a565b61183a835f1c60206118c7565b60405160200161184b929190612789565b6040516020818303038152906040526040517f08c379a000000000000000000000000000000000000000000000000000000000815260040161188d9190611c23565b60405180910390fd5b5050565b60606118c08273ffffffffffffffffffffffffffffffffffffffff16601460ff166118c7565b9050919050565b60605f60028360026118d991906127c2565b6118e39190612052565b67ffffffffffffffff8111156118fc576118fb612803565b5b6040519080825280601f01601f19166020018201604052801561192e5781602001600182028036833780820191505090505b5090507f3000000000000000000000000000000000000000000000000000000000000000815f8151811061196557611964612830565b5b60200101907effffffffffffffffffffffffffffffffffffffffffffffffffffffffffffff191690815f1a9053507f7800000000000000000000000000000000000000000000000000000000000000816001815181106119c8576119c7612830565b5b60200101907effffffffffffffffffffffffffffffffffffffffffffffffffffffffffffff191690815f1a9053505f6001846002611a0691906127c2565b611a109190612052565b90505b6001811115611aaf577f3031323334353637383961626364656600000000000000000000000000000000600f861660108110611a5257611a51612830565b5b1a60f81b828281518110611a6957611a68612830565b5b60200101907effffffffffffffffffffffffffffffffffffffffffffffffffffffffffffff191690815f1a905350600485901c945080611aa89061285d565b9050611a13565b505f8414611af2576040517f08c379a0000000000000000000000000000000000000000000000000000000008152600401611ae9906128ce565b60405180910390fd5b8091505092915050565b5f5ffd5b5f7fffffffff0000000000000000000000000000000000000000000000000000000082169050919050565b611b3481611b00565b8114611b3e575f5ffd5b50565b5f81359050611b4f81611b2b565b92915050565b5f60208284031215611b6a57611b69611afc565b5b5f611b7784828501611b41565b91505092915050565b5f8115159050919050565b611b9481611b80565b82525050565b5f602082019050611bad5f830184611b8b565b92915050565b5f81519050919050565b5f82825260208201905092915050565b8281835e5f83830152505050565b5f601f19601f8301169050919050565b5f611bf582611bb3565b611bff8185611bbd565b9350611c0f818560208601611bcd565b611c1881611bdb565b840191505092915050565b5f6020820190508181035f830152611c3b8184611beb565b905092915050565b5f73ffffffffffffffffffffffffffffffffffffffff82169050919050565b5f611c6c82611c43565b9050919050565b611c7c81611c62565b8114611c86575f5ffd5b50565b5f81359050611c9781611c73565b92915050565b5f819050919050565b611caf81611c9d565b8114611cb9575f5ffd5b50565b5f81359050611cca81611ca6565b92915050565b5f5f60408385031215611ce657611ce5611afc565b5b5f611cf385828601611c89565b9250506020611d0485828601611cbc565b9150509250929050565b611d1781611c9d565b82525050565b5f602082019050611d305f830184611d0e565b92915050565b5f5f5f60608486031215611d4d57611d4c611afc565b5b5f611d5a86828701611c89565b9350506020611d6b86828701611c89565b9250506040611d7c86828701611cbc565b9150509250925092565b5f819050919050565b611d9881611d86565b8114611da2575f5ffd5b50565b5f81359050611db381611d8f565b92915050565b5f60208284031215611dce57611dcd611afc565b5b5f611ddb84828501611da5565b91505092915050565b611ded81611d86565b82525050565b5f602082019050611e065f830184611de4565b92915050565b5f5f60408385031215611e2257611e21611afc565b5b5f611e2f85828601611da5565b9250506020611e4085828601611c89565b9150509250929050565b5f60ff82169050919050565b611e5f81611e4a565b82525050565b5f602082019050611e785f830184611e56565b92915050565b5f60208284031215611e9357611e92611afc565b5b5f611ea084828501611cbc565b91505092915050565b5f60208284031215611ebe57611ebd611afc565b5b5f611ecb84828501611c89565b91505092915050565b611edd81611c62565b82525050565b5f602082019050611ef65f830184611ed4565b92915050565b5f5f60408385031215611f1257611f11611afc565b5b5f611f1f85828601611c89565b9250506020611f3085828601611c89565b9150509250929050565b7f4e487b71000000000000000000000000000000000000000000000000000000005f52602260045260245ffd5b5f6002820490506001821680611f7e57607f821691505b602082108103611f9157611f90611f3a565b5b50919050565b7f416363657373436f6e74726f6c3a2063616e206f6e6c792072656e6f756e63655f8201527f20726f6c657320666f722073656c660000000000000000000000000000000000602082015250565b5f611ff1602f83611bbd565b9150611ffc82611f97565b604082019050919050565b5f6020820190508181035f83015261201e81611fe5565b9050919050565b7f4e487b71000000000000000000000000000000000000000000000000000000005f52601160045260245ffd5b5f61205c82611c9d565b915061206783611c9d565b925082820190508082111561207f5761207e612025565b5b92915050565b7f45524332303a2064656372656173656420616c6c6f77616e63652062656c6f775f8201527f207a65726f000000000000000000000000000000000000000000000000000000602082015250565b5f6120df602583611bbd565b91506120ea82612085565b604082019050919050565b5f6020820190508181035f83015261210c816120d3565b9050919050565b7f4f776e61626c653a206e6577206f776e657220697320746865207a65726f20615f8201527f6464726573730000000000000000000000000000000000000000000000000000602082015250565b5f61216d602683611bbd565b915061217882612113565b604082019050919050565b5f6020820190508181035f83015261219a81612161565b9050919050565b7f45524332303a20617070726f76652066726f6d20746865207a65726f206164645f8201527f7265737300000000000000000000000000000000000000000000000000000000602082015250565b5f6121fb602483611bbd565b9150612206826121a1565b604082019050919050565b5f6020820190508181035f830152612228816121ef565b9050919050565b7f45524332303a20617070726f766520746f20746865207a65726f2061646472655f8201527f7373000000000000000000000000000000000000000000000000000000000000602082015250565b5f612289602283611bbd565b91506122948261222f565b604082019050919050565b5f6020820190508181035f8301526122b68161227d565b9050919050565b7f45524332303a20696e73756666696369656e7420616c6c6f77616e63650000005f82015250565b5f6122f1601d83611bbd565b91506122fc826122bd565b602082019050919050565b5f6020820190508181035f83015261231e816122e5565b9050919050565b7f45524332303a207472616e736665722066726f6d20746865207a65726f2061645f8201527f6472657373000000000000000000000000000000000000000000000000000000602082015250565b5f61237f602583611bbd565b915061238a82612325565b604082019050919050565b5f6020820190508181035f8301526123ac81612373565b9050919050565b7f45524332303a207472616e7366657220746f20746865207a65726f20616464725f8201527f6573730000000000000000000000000000000000000000000000000000000000602082015250565b5f61240d602383611bbd565b9150612418826123b3565b604082019050919050565b5f6020820190508181035f83015261243a81612401565b9050919050565b7f45524332303a207472616e7366657220616d6f756e74206578636565647320625f8201527f616c616e63650000000000000000000000000000000000000000000000000000602082015250565b5f61249b602683611bbd565b91506124a682612441565b604082019050919050565b5f6020820190508181035f8301526124c88161248f565b9050919050565b7f45524332303a206d696e7420746f20746865207a65726f2061646472657373005f82015250565b5f612503601f83611bbd565b915061250e826124cf565b602082019050919050565b5f6020820190508181035f830152612530816124f7565b9050919050565b7f45524332303a206275726e2066726f6d20746865207a65726f206164647265735f8201527f7300000000000000000000000000000000000000000000000000000000000000602082015250565b5f612591602183611bbd565b915061259c82612537565b604082019050919050565b5f6020820190508181035f8301526125be81612585565b9050919050565b7f45524332303a206275726e20616d6f756e7420657863656564732062616c616e5f8201527f6365000000000000000000000000000000000000000000000000000000000000602082015250565b5f61261f602283611bbd565b915061262a826125c5565b604082019050919050565b5f6020820190508181035f83015261264c81612613565b9050919050565b7f4f776e61626c653a2063616c6c6572206973206e6f7420746865206f776e65725f82015250565b5f612687602083611bbd565b915061269282612653565b602082019050919050565b5f6020820190508181035f8301526126b48161267b565b9050919050565b5f81905092915050565b7f416363657373436f6e74726f6c3a206163636f756e74200000000000000000005f82015250565b5f6126f96017836126bb565b9150612704826126c5565b601782019050919050565b5f61271982611bb3565b61272381856126bb565b9350612733818560208601611bcd565b80840191505092915050565b7f206973206d697373696e6720726f6c65200000000000000000000000000000005f82015250565b5f6127736011836126bb565b915061277e8261273f565b601182019050919050565b5f612793826126ed565b915061279f828561270f565b91506127aa82612767565b91506127b6828461270f565b91508190509392505050565b5f6127cc82611c9d565b91506127d783611c9d565b92508282026127e581611c9d565b915082820484148315176127fc576127fb612025565b5b5092915050565b7f4e487b71000000000000000000000000000000000000000000000000000000005f52604160045260245ffd5b7f4e487b71000000000000000000000000000000000000000000000000000000005f52603260045260245ffd5b5f61286782611c9d565b91505f820361287957612878612025565b5b600182039050919050565b7f537472696e67733a20686578206c656e67746820696e73756666696369656e745f82015250565b5f6128b8602083611bbd565b91506128c382612884565b602082019050919050565b5f6020820190508181035f8301526128e5816128ac565b905091905056fea26469706673582212209357f1da54351f526391300cf1c5df9612c236a9acadf699c19ae1dae2f6d6b764736f6c634300081e0033",
    "linkReferences": {}
  },
  "methodIdentifiers": {
    "DEFAULT_ADMIN_ROLE()": "a217fddf",
    "allowance(address,address)": "dd62ed3e",
    "approve(address,uint256)": "095ea7b3",
    "balanceOf(address)": "70a08231",
    "burn(address,uint256)": "9dc29fac",
    "burn(uint256)": "42966c68",
    "burnFrom(address,uint256)": "79cc6790",
    "decimals()": "313ce567",
    "decreaseAllowance(address,uint256)": "a457c2d7",
    "getBurnerRole()": "c5b66dc9",
    "getCCIPAdmin()": "8fd6a6ac",
    "getMinterRole()": "ea35f36c",
    "getRoleAdmin(bytes32)": "248a9ca3",
    "grantRole(bytes32,address)": "2f2ff15d",
    "hasRole(bytes32,address)": "91d14854",
    "increaseAllowance(address,uint256)": "39509351",
    "mint(address,uint256)": "40c10f19",
    "name()": "06fdde03",
    "owner()": "8da5cb5b",
    "renounceOwnership()": "715018a6",
    "renounceRole(bytes32,address)": "36568abe",
    "revokeRole(bytes32,address)": "d547741f",
    "supportsInterface(bytes4)": "01ffc9a7",
    "symbol()": "95d89b41",
    "totalSupply()": "18160ddd",
    "transfer(address,uint256)": "a9059cbb",
    "transferFrom(address,address,uint256)": "23b872dd",
    "transferOwnership(address)": "f2fde38b"
  },
  "id": 79
}